:020000040800F2
:10000000700F0020050100080D0100080F01000815
:10001000110100081301000815010008000000008C
:1000200000000000000000000000000017010008B0
:1000300019010008000000001B0100081D01000854
:100040001F0100081F0100081F0100081F01000810
:100050001F0100081F010008152500081F010008E6
:100060001F0100081F0100081F0100081F010008F0
:100070001F0100081F0100081F0100081F010008E0
:100080001F0100081F0100081F0100081F010008D0
:100090001F0100081F0100081F0100081F010008C0
:1000A0001F0100081F0100081F0100081F010008B0
:1000B0001F0100081F010008054F00081F0100086C
:1000C0001F0100081F0100081F0100081F01000890
:1000D0001F0100081F010008415700081F01000808
:1000E0001F0100081F0100081F010008DFF810D0E1
:1000F00000F032FC00480047F1660008AFF30080D2
:10010000700F00200648804706480047FEE7FEE7DC
:10011000FEE7FEE7FEE7FEE7FEE7FEE7FEE7FEE7B7
:10012000494E0008ED0000080649074A0868504398
:1001300043F23902104408604008704701490860E2
:1001400070470000D00200206D4EC64140EA010316
:100150009B0703D009E008C9121F08C0042AFAD27D
:1001600003E011F8013B00F8013B521EF9D2704741
:10017000F0B480EA0102D40F4200B2EB410F02D288
:100180000246084611464A0042D0C30DDDB2C1F313
:10019000C752AD1A202D35DAC1F3160141F4000221
:1001A00004B15242C5F1200602FA06F12A41104478
:1001B000B3EBD05F23D0C4B1012DA0EBC35009DC59
:1001C000F0BC4FF0004202EAC352DBB200F500007F
:1001D00000F0E0B9400000F1807000EBC350A0F1E6
:1001E000807040EAD170490009E0490841EAC071D5
:1001F000A0EBC35000F50000400800EBC350F0BC7A
:1002000000F0BFB96142012202EB4101001BF6E799
:10021000F0BC704781F00041AAE780F00040A7E7FA
:1002200080EA010210B502F00043400022D04A00EB
:100230001FD0010E01EB1261C0F35600C2F356024B
:1002400040F4000042F40002A0FB022000047F39C9
:10025000140400D0401C50EA124001D44000491E52
:10026000C2B20C0604EBD010401C4008802A02D019
:1002700003E0002010BD20F00100002900DA00207A
:10028000184310BD30B480EA010202F0004530F09E
:10029000004221F0004013D090B1C30DD40DC2F341
:1002A0001601C0F31600E41A41F4000140F4000204
:1002B0007D34914201D3641C00E04900002C02DA35
:1002C00030BC002070474FF400000023914201D35E
:1002D000891A034340084FEA4101F7D151B19142D5
:1002E00002D14FF0004105E002D24FF0010101E0E0
:1002F0006FF0010103EBC450284430BC00F041B959
:100300002DE9FE4F81EA030404F0004421F000418E
:1003100000944FF0000B23F0004350EA01045ED03C
:1003200052EA03045BD0C3F30A54C1F30A552C44C8
:10033000A4F2F3340194A0FB0254C1F3130141F47D
:100340008011C3F3130343F4801301FB024400FB49
:10035000034E840A970A44EA815447EA8357A4FB70
:10036000076802958D0A05FB07854FEA932C04FB6D
:100370000C542705029D4FEA065847EA1637B5EB9D
:1003800008056EEB070C870E920E47EA811742EACA
:100390008312A7FB0201B6EB0B0164EB00042B0DEB
:1003A00043EA0C335E1844EB1C50DA465146E7FB37
:1003B0000201C5F313044FEA0B3343EA14534FEA27
:1003C0000432019C43EA0603A4F10C040294009C4D
:1003D000CDE900B400F045F903B0BDE8F08F00208E
:1003E0000146F9E7C10F80EAE0700844CA07962386
:1003F000002100F0CFB896230022114600F0CAB8C1
:100400000EB5C10F80EAE0700844CA07002140F22F
:1004100033438DE80E000A460B4600F022F903B084
:1004200000BD00F0004220F00040C10DC0F31600F6
:1004300040F400007F2901DA00207047962903DC90
:10044000C1F19601C84001E096398840002AF4D0F5
:100450004042704720F00040C10DC0F3160040F448
:1004600000007F2901DA00207047962903DCC1F1E2
:100470009601C840704796398840704700F00042A6
:1004800030F000400AD0C10D01F56071C0F31600D4
:1004900042EA0151C208400711437047002001465B
:1004A0007047000030B5041E71F1000404DB4FF00A
:1004B0000044404264EB0101141E73F1000405DBAB
:1004C0001C464FF00043524263EB04038B4208BFCB
:1004D000824230BD30B5041E71F1000404DB4FF0E0
:1004E0000044404264EB0101141E73F1000405DB7B
:1004F0001C464FF00043524263EB0403994208BF8D
:10050000904230BD01F0004330B421F0004150EA88
:10051000010206D00A0DA2F56072C1F31301002A90
:1005200002DC30BC00207047440F44EAC104C10023
:10053000E01830BC00EBC25000F023B8002801DB0B
:10054000C0F10040002901DBC1F100418142704748
:10055000002801DBC0F10040002901DBC1F10041AE
:1005600088427047202A04DB203A00FA02F100207A
:1005700070479140C2F1200320FA03F319439040E1
:1005800070470029A8BF7047401C490008BF20F0F1
:100590000100704710B4B0FA80FC00FA0CF050EA89
:1005A000010404BF10BC704749B1CCF1200421FA0A
:1005B00004F411FA0CF118BF012121430843A3EB05
:1005C0000C01CB1D4FEA00614FEA102042BF002012
:1005D00010BC704700EBC35010440029A4BF10BCEE
:1005E0007047401C490008BF20F0010010BC704754
:1005F000420005D0C0F3C7525242914201DC0020B4
:10060000704700EBC150704710B541000CD0C0F3EB
:10061000C751962908DC7E2909DC06DB410204D09B
:1006200000F0004040F07E5010BD002010BDC1F130
:100630009604C4F1200100FA01F1E040FFF7A1FFA8
:10064000A04010BD10B5141E73F1000408DA401C60
:1006500041F1000192185B411A4301D120F00100E1
:1006600010BD2DE9F04D92469B4611B1B1FA81F2D1
:1006700002E0B0FA80F220329046FFF773FF0446A2
:100680000F4640EA0A0041EA0B0153465A46084326
:1006900013D0114653EA010019D0C8F14002504668
:1006A00000F06CF905460E46504659464246FFF7A3
:1006B00059FF084305D0012004E020463946BDE833
:1006C000F08D0020054346EAE0762C4337430A9834
:1006D0006305E40AA0EB08000022FD0A44EA47543F
:1006E0000A3002D500200146E9E7010510196941E9
:1006F000DDE9084500196941BDE8F04DA2E72DE9A3
:10070000FE4F804681EA0300C00F0C46009021F0A6
:10071000004123F00045B8EB0200A94105D2404654
:10072000214690461C460B46024623F000401043EB
:1007300047D0270DC7F30A00C3F30A510290401AAD
:10074000019040286BDAC3F3130040F4801B00983B
:10075000924620B10023D2EB030A63EB0B0B019806
:100760005946C0F140025046FFF7FCFE06460D46D2
:1007700050465946019A00F011F910EB080061410A
:10078000002487EA115284EAE7731A4340D0009AA2
:1007900062B3019A012A4FEA075215DC001B61EB94
:1007A00002014FF0004202EA0752CDE90042001C6C
:1007B00041F5801132462B46FFF753FF03B0BDE8E9
:1007C000F08F40462146F9E7001B61EB0201001C57
:1007D00041F5801300185B412018A2F5001747EB84
:1007E000030140EAD570B6196D4111E06D084FEA7A
:1007F000360645EAC0754FEA0752001B61EB02015D
:10080000001C41F5801149084FEA300000195141A0
:1008100032462B4603B0BDE8F04FFFF713BF0098F8
:10082000012240000023D0EB020263EBE07300984A
:1008300021464FEAE074B8EB000061EB0401E9E700
:1008400083F000435BE781F0004158E72DE9F04D6C
:1008500081EA030404F0004B21F0004514464FF0F8
:10086000000A23F0004150EA050220D054EA0102B8
:100870001DD0C5F30A570246C5F31303C1F3130095
:10088000C1F30A5640F4801543F48013A7EB060821
:10089000101BD64608F2FD3873EB050002D308F1B1
:1008A000010801E092185B41B8F1000F03DA002063
:1008B0000146BDE8F08D00204FF4801106468446C5
:1008C0000EE0171B73EB050705D3121B63EB050343
:1008D00006434CEA010C49084FEA300092185B418C
:1008E00050EA0107EDD152EA030012D082EA040077
:1008F00083EA0501084305D0101BAB4106D2012253
:10090000002306E000224FF0004302E06FF00102F6
:1009100053101AEB06004CEB085110EB0A0041EBA8
:100920000B01BDE8F04DFFF78DBE70B521F000431F
:1009300003430CD0C1F30A550024D5EB040564EB46
:100940000403D617AD1AB34102DB0020014670BD87
:10095000201841EB025170BD064C074D06E0E068DF
:1009600040F0010394E8070098471034AC42F6D3F6
:10097000FFF7C0FB386A0008586A0008202A04DB29
:10098000203A21FA02F00021704721FA02F3D04008
:10099000C2F120029140084319467047202A06DB25
:1009A000CB17203A41FA02F043EAE07306E041FA3D
:1009B00002F3D040C2F1200291400843194670472B
:1009C0002DE9F04D00231A461B1A8A4103DB002053
:1009D0000146BDE8F08DC1F30A52C1F3130141F4A1
:1009E00080154FF0000BD10702D100186D41521E47
:1009F0000027044640F2FF11384601EB620A3E46EA
:100A00008046024600204FF48011FFF7B7FFC2195D
:100A10007141BB1846EB0100B4EB030C75EB000C05
:100A200004D3E41A65EB000517460E46241908F1B5
:100A300001006D4180463428E3DDF91946EB0600DC
:100A4000091BA84103D24FF0FF32134601E00022F8
:100A500013461BEB070046EB0A51BDE8F04DFFF7CC
:100A6000F1BD70B58C1810F8015B15F0070301D1CA
:100A700010F8013B2A1106D110F8012B03E010F801
:100A8000016B01F8016B5B1EF9D12B0705D4002324
:100A9000521E0DD401F8013BFAE710F8013BCB1AC6
:100AA000921C03E013F8015B01F8015B521EF9D5BB
:100AB000A142D8D3002070BD10B503F0BDFB03F0F8
:100AC0002FFC642001F0DEFC03F0B6FB642001F093
:100AD000D9FC03F025FC642001F0D4FC03F0ACFB4E
:100AE000642001F0CFFC03F01BFC642001F0CAFC81
:100AF00003F0A2FB10BD21B1826842F001028260C6
:100B000003E0826822F00102826070470146C86CEF
:100B100080B270470246002013680B400BB10120E1
:100B200000E000207047000030B50246002000239E
:100B300050680F4C20400D790C6844EA052420438E
:100B4000506090680B4C2040D1E902542C434D7901
:100B500044EA450420439060D06A20F470000C7C85
:100B6000641EE4B2234340EA0350D06230BD00006B
:100B7000FFFEF0FFFDF7F1FFF0B504460D46002043
:100B80000021092D11DDE068A5F10A0606EB4607F4
:100B9000072606FA07F18843A5F10A0606EB460682
:100BA00003FA06F10843E0600CE0206905EB450715
:100BB000072606FA07F1884305EB450603FA06F116
:100BC00008432061072A0FDA606B561E06EB860782
:100BD0001F2606FA07F18843561E06EB860605FA1D
:100BE00006F10843606322E00D2A0FDA206BD61F5E
:100BF00006EB86071F2606FA07F18843D61F06EB89
:100C0000860605FA06F10843206310E0E06AA2F1C7
:100C10000D0606EB86071F2606FA07F18843A2F1A8
:100C20000D0606EB860605FA06F10843E062F0BD04
:100C300021B1826842F4A002826003E0826822F45B
:100C4000A0028260704700002DE9F04F87B0D248C3
:100C50000078401CD0490870D0480078401CCF492B
:100C60000870CF480078401CCD490870CD48007806
:100C7000401CCC490870CC480078401CCA49087018
:100C8000C5480078372805DB0020C34908700120DB
:100C9000C6494870C1480078052805DB0020BF49D7
:100CA00008700120C1498870BD480078142805DB10
:100CB0000020BB4908700120BC49C870B9480078C1
:100CC000232805DB0020B74908700120B7490871C7
:100CD000B54800783C2805DB0020B34908700120A6
:100CE000B2494871B148407878B10020AF494870A6
:100CF000AF4800780021AF4BCDE900109A685968E1
:100D00001868002300F054FF43E1A84880780028C9
:100D10006DD00020A5498870A7498868FFF781FB3E
:100D20000FFA80FB5846FFF75DFB8246A349FFF7A9
:100D300077FA8146FFF775FB04B29F494868FFF7D1
:100D400070FB0FFA80FB5846FFF74CFB82469B492D
:100D5000FFF766FA8146FFF764FB05B2964908681B
:100D6000FFF75FFB0FFA80FB5846FFF73BFB82461D
:100D70009249FFF755FA8146FFF753FB06B29049B7
:100D80008868FFF74EFB07B28D494868FFF749FBBB
:100D90000FFA80F88A490868FFF743FB00B2069013
:100DA000002002900390049033463A464146CDE934
:100DB00000540590069800F03DFE7F4988687F4901
:100DC000FFF72EFA04467F48006B7E49C96A7D4AC8
:100DD000926A7C4BDB68CDE90032CDE902107A489B
:100DE000036BC26A816A204601F0AEF9D1E06F4818
:100DF000C07818B100206D49C870CAE06B4800790E
:100E000028B300206949087170480068FFF722FB89
:100E100084B26F480068FFF71DFB85B26D4800681B
:100E2000FFF718FB86B26C480068FFF713FB87B228
:100E30000820072106220523CDE90032CDE9021062
:100E400023462A463146384600F00EFCA1E05748BA
:100E5000407988B1002055494871604988686049E7
:100E6000FFF7DEF90546FFF7F5FA84B24FF4E471B7
:100E7000204600F095FD8CE04C488079E0B10020E0
:100E80004A498871504880684F4949684E4A1268FB
:100E9000544B9B68CDE90232CDE9041051484068BB
:100EA00050490968CDE900104F48836842680168DD
:100EB000012000F06FFC6CE03C48C079E0B10020FC
:100EC0003A49C8713F4880683E4949683D4A1268BE
:100ED000464B9B68CDE90232CDE904104348406897
:100EE00042490968CDE900104148836842680168B9
:100EF000022000F04FFC4CE02C48007AB8B10020F2
:100F00002A49087200213B488068CDE9020104911A
:100F100038480591406837490968CDE900103648DE
:100F2000836842680168032000F034FC31E01F4808
:100F3000407A70B300201D494872304830498A0712
:100F4000304BCDE90232CDE904102F482F4902463B
:100F5000CDE90010012000F01DFC00202C4ACDE955
:100F60000202049005902B482B4900230246CDE94C
:100F70000010022000F00EFC00200290039004906C
:100F8000059000900346024601460190032000F0C0
:100F900001FC07B0BDE8F08F590200205A02002082
:100FA0005B0200205C0200205D0200206A0300203A
:100FB00089020020F80A0020040B0020A34C65429F
:100FC0001C0B002050040020040500208402002097
:100FD000800200207C0200207802002034020020E1
:100FE0000000C842C80400208C0400201404002023
:100FF000D80300207C050020400500207B142E3FF4
:10100000CDCC4C3D5C8FC23E295C0F3D6666263FD1
:101010000000A0400AD7233C9A9919402DE9F05FBF
:1010200004460D460026B14607E014F80900304496
:10103000C6B209F1010000F0FF09681E4845F4DC62
:10104000601910F8010CB04201D0BDE8F09F207883
:10105000AA2802D16078AF2800D0F6E7A07801284E
:101060003ED1207901280AD1FE48007840F00200E4
:10107000FC4908700020FC4908804880888020795D
:1010800002280AD1F748007840F00100F5490870BD
:101090000020F649088048808880207903280AD1FA
:1010A000F048007840F00200EE49087008460078E9
:1010B00040F001000870207904280FD1EC48007836
:1010C00080F00100EA4908700846007818B1012054
:1010D000E849087002E00020E649087002F07CFD53
:1010E000A078022812D12079012803D1E249887121
:1010F000C87108722079A02802D10120DE49087049
:101100002079A12802D10120DB494872A07810285B
:101110007ED12179090209B2627941EA0200FFF722
:101120006FF98246D54AD64BFFF7EAF80746FFF734
:10113000E9F9D4490860A179090209B2E27941EAE2
:101140000200FFF75DF98246CC4ACD4BFFF7D8F895
:101150000746FFF7D7F9CB494860217A090209B25F
:10116000627A41EA0200FFF74BF98246C34AC44B58
:10117000FFF7C6F80746FFF7C5F9C2498860A17AAC
:10118000090209B2E27A41EA0200FFF739F9824620
:10119000BA4ABB4BFFF7B4F80746FFF7B3F9BA49B1
:1011A0000860217B090209B2627B41EA0200FFF775
:1011B00027F98246B14AB24BFFF7A2F80746FFF77C
:1011C000A1F9B1494860A17B090209B2E27B41EA79
:1011D0000200FFF715F98246A84AA94BFFF790F8DD
:1011E0000746FFF78FF9A8498860217C090209B2F8
:1011F000627C41EA0200FFF703F982469F4AA04B56
:10120000FFF77EF80746FFF77DF9A049086000E088
:1012100029E0A17C090209B2E27C41EA0200FFF761
:10122000EFF88246954A964BFFF76AF80746FFF7B4
:1012300069F996494860217D090209B2627D41EA57
:101240000200FFF7DDF807468C4A8D4BFFF758F890
:101250008246FFF757F98D498860A078314600F043
:10126000D7F902F0B9FCA07811287DD121790902C3
:1012700009B2627941EA0200FFF7C2F807467F4AE5
:101280007F4BFFF73DF88246FFF73CF98049086045
:10129000A179090209B2E27941EA0200FFF7B0F848
:1012A0008246764A764BFFF72BF80746FFF72AF976
:1012B00077494860217A090209B2627A41EA02005C
:1012C000FFF79EF882466D4A6D4BFFF719F8074607
:1012D000FFF718F96E498860A17A090209B2E27A2B
:1012E00041EA0200FFF78CF80746644A644BFFF7B7
:1012F00007F88246FFF706F966490860217B090274
:1013000009B2627B41EA0200FFF77AF807465B4ABE
:101310005B4BFEF7F5FF8246FFF7F4F85D49486046
:10132000A17B090209B2E27B41EA0200FFF768F8FB
:101330008246524A524BFEF7E3FF0746FFF7E2F8B8
:1013400054498860217C090209B2627C41EA0200AA
:10135000FFF756F88246494A494BFEF7D1FF074648
:10136000FFF7D0F84C4900E02AE00860A17C0902B0
:1013700009B2E27C41EA0200FFF742F807463F4A21
:101380003F4BFEF7BDFF8246FFF7BCF8424948607D
:10139000217D090209B2627D41EA0200FFF730F8BF
:1013A0000746364A364BFEF7ABFF8246FFF7AAF8F0
:1013B00039498860A078314600F02AF902F00CFC27
:1013C000A07812286ED12179090209B2627941EA26
:1013D0000200FFF715F80746284A294BFEF790FF51
:1013E0008246FFF78FF82D490860A179090209B2FA
:1013F000E27941EA0200FFF703F807461F4A204B53
:10140000FEF77EFF8246FFF77DF824494860217A87
:10141000090209B2627A41EA0200FEF7F1FF0746CB
:10142000164A174BFEF76CFF8246FFF76BF81B4915
:101430008860A17A090209B2E27A41EA0200FEF765
:10144000DFFF07460D4A0E4BFEF75AFF8246FFF7B5
:1014500059F813490860217B090209B2627B41EA0D
:10146000020020E0200200200E02002008020020DE
:1014700058020020890200206A030020FCA9F1D252
:101480004D62503F8C040020C80400200405002059
:10149000D803002014040020500400204005002040
:1014A0007C05002023E0FEF7ABFF07461B4A1C4BE0
:1014B000FEF726FF8246FFF725F81A494860A17B10
:1014C000090209B2E27B41EA0200FEF799FF0746F2
:1014D000124A134BFEF714FF8246FFF713F8114927
:1014E0008860A078314600F093F802F075FBA07890
:1014F000132803D1A078314600F08AF8A078142888
:1015000003D1A078314600F083F8A078152803D1E4
:10151000A078314600F07CF800BF96E5FCA9F1D236
:101520004D62503F7C05002010B5044634480078D9
:1015300038B9AA2C05D1012031490870314804700E
:101540005DE02F480078012807D1AF2C05D102209B
:101550002B4908702B48447051E029480078022834
:1015600007D1F12C05DA032025490870254884703D
:1015700045E02348007803280CD1322C0ADA0420F5
:101580001F4908701F48C4701F48047000201F497D
:10159000087034E01A480078042819D11A480078F5
:1015A000002815DD18480078401E174908701748B4
:1015B000007816490978491C144A1170001D114918
:1015C0000C5411480078D0B905200D49087016E078
:1015D0000B48007805280FD10020094908700B48F6
:1015E0000078001D07490C5408480078401DC1B21E
:1015F0000448FFF713FD02E000200149087010BD08
:1016000060020020A60300205E0200205F0200208E
:101610002DE9F04105460E460027AA200D49087025
:101620004870EF2088700220C87008460571467126
:10163000002405E00748005D3844C7B2601CC4B20E
:10164000062CF7DB03488771072100F005F8BDE899
:10165000F08100007403002070B504460D46294651
:10166000204605F035F970BD7FB500240026AA227A
:101670002146641C464842542146641C42540622BA
:101680002146641C425400222146641C42549DF8A9
:1016900001202146641C42549DF800202146641C10
:1016A00042549DF805202146641C42549DF80420B4
:1016B0002046611CCCB236490A549DF809202046C8
:1016C000611CCCB232490A549DF808202046611CA6
:1016D000CCB22F490A549DF80D202046611CCCB293
:1016E0002B490A549DF80C202046611CCCB2284995
:1016F0000A549DF821202046611CCCB224490A548A
:101700009DF820202046611CCCB221490A549DF846
:1017100025202046611CCCB21D490A549DF8242086
:101720002046611CCCB21A490A549DF82920204653
:10173000611CCCB216490A549DF828202046611C31
:10174000CCB213490A549DF82D202046611CCCB21E
:101750000F490A549DF82C202046611CCCB20C493C
:101760000A54201FC870002505E00948405D304438
:10177000C6B2681CC5B2A542F7DB2046611CCCB2DC
:1017800003490E5421460248FFF766FF7FBD000063
:10179000740300202DE9FC5F06460F4690469946EB
:1017A000DDF830B00024A246AA222146641C7A4803
:1017B00042542146641C425406F10F00C2B2214635
:1017C000641C7548425400222146641C42547349EB
:1017D0003846FEF725FD0090FEF723FE00B201908B
:1017E0009DF805202146641C6B4842549DF8042056
:1017F0002146641C425469494046FEF711FD0090A1
:10180000FEF70FFE00B201909DF805202146641CF2
:10181000614842549DF804202046611CCCB25E49C8
:101820000A545E494846FEF7FBFC0090FEF7F9FDBE
:1018300000B201909DF805202046611CCCB25649AB
:101840000A549DF804202046611CCCB252490A5427
:1018500052495846FEF7E4FC0090FEF7E2FD00B264
:1018600001909DF805202046611CCCB24A490A54DB
:101870009DF804202046611CCCB247490A544749D0
:101880000D98FEF7CDFC0090FEF7CBFD00B2019065
:101890009DF805202046611CCCB23F490A549DF8B2
:1018A00004202046611CCCB23B490A543B490E98A7
:1018B000FEF7B6FC0090FEF7B4FD00B201909DF873
:1018C00005202046611CCCB233490A549DF80420FF
:1018D0002046611CCCB230490A5430490F98FEF7BB
:1018E0009FFC0090FEF79DFD00B201909DF8052041
:1018F0002046611CCCB228490A549DF80420204699
:10190000611CCCB224490A5424491098FEF788FC83
:101910000090FEF786FD00B201909DF8052020465C
:10192000611CCCB21C490A549DF804202046611C5D
:10193000CCB219490A5419491198FEF771FC00906C
:10194000FEF76FFD00B201909DF805202046611C56
:10195000CCB211490A549DF804202046611CCCB237
:101960000D490A54201FC870002506E00A48405D52
:10197000504400F0FF0A681CC5B2A542F6DB2046C1
:10198000611CCCB2044901F800A021460248FFF7CF
:1019900063FEBDE8FC9F00007403002000007A4451
:1019A0002DE9F84306460F460024A046AA22214608
:1019B000641C1F4842542146641C4254052221469F
:1019C000641C425400222146641C425400969DF837
:1019D00001202146641C42549DF800202146641CCD
:1019E000425400979DF801202146641C42549DF802
:1019F00000202046611CCCB20D490A54201FC8703B
:101A0000002506E00A48405D404400F0FF08681CDD
:101A1000C5B2A542F6DB2046611CCCB2044901F8F0
:101A2000008021460248FFF717FEBDE8F88300005A
:101A3000740300202DE9F84F06460F46904699465C
:101A4000DDF828B00024A246AA222146641C57488B
:101A500042542146641C425402222146641C4254D2
:101A600000222146641C425400969DF80120214624
:101A7000641C42549DF800202146641C4254009787
:101A80009DF801202146641C42549DF80020204608
:101A9000611CCCB245490A54CDF800809DF8012064
:101AA0002046611CCCB241490A549DF800202046D2
:101AB000611CCCB23D490A54CDF800909DF801203C
:101AC0002046611CCCB239490A549DF800202046BA
:101AD000611CCCB235490A54CDF800B09DF8012004
:101AE0002046611CCCB231490A549DF800202046A2
:101AF000611CCCB22D490A540B9800909DF801202E
:101B00002046611CCCB229490A549DF80020204689
:101B1000611CCCB225490A540C9800909DF8012014
:101B20002046611CCCB221490A549DF80020204671
:101B3000611CCCB21D490A540D9800909DF80120FB
:101B40002046611CCCB219490A549DF80020204659
:101B5000611CCCB215490A540E9800909DF80120E2
:101B60002046611CCCB211490A549DF80020204641
:101B7000611CCCB20D490A54201FC870002506E034
:101B80000A48405D504400F0FF0A681CC5B2A542F7
:101B9000F6DB2046611CCCB2044901F800A02146C6
:101BA0000248FFF759FDBDE8F88F000074030020DC
:101BB0002DE9FE4F82460E4617469846DDF830B0B6
:101BC0000024A146CDF80480AA222146641C48487E
:101BD00042542146641C425401222146641C425452
:101BE00000222146641C425442495046FEF718FB2D
:101BF0000090FEF716FC00B202909DF809202146E5
:101C0000641C3B4842549DF808202146641C425401
:101C100038493046FEF704FB0090FEF702FC00B2A4
:101C200002909DF809202146641C314842549DF8D9
:101C300008202146601CC4B22D4842542D49384624
:101C4000FEF7EEFA0090FEF7ECFB00B202909DF872
:101C500009202046611CCCB225490A549DF8082071
:101C60002146601CC4B2224842549DF807202046F9
:101C7000611CCCB21E490A549DF806202046611C06
:101C8000CCB21B490A549DF805202046611CCCB2F9
:101C900017490A549DF804202146601CC4B2144818
:101CA00042542046611CCCB2114901F800B02146D3
:101CB000621CD4B20E4A0D985054201F1146C870B1
:101CC000002506E00A48405D484400F0FF09681C12
:101CD000C5B2A542F6DB2046611CCCB2044901F82E
:101CE000009021460248FFF7B7FCBDE8FE8F0000D8
:101CF000740300200000C8422DE9F04706460F4655
:101D000014464FF000081A481A49097840F8216033
:101D100018480078401C1749087008460078A0420F
:101D200004DA1548007808B1BDE8F08700201249B0
:101D30000870002508E00E4850F825104046FEF7D0
:101D400017FA8046681CC5B2A542F4DB0948007842
:101D5000A04202DB0020074908702046FEF74BFB3B
:101D6000814649464046FEF78DFA386000BFDBE702
:101D7000580A0020A8020020A902002000B5094846
:101D8000007868B10848007828B10020064908703A
:101D900002F05FFA04E001200349087002F04CFAF7
:101DA00000BD0000480200200502002070B501209F
:101DB00000F016FE0646FEF71EFB054606220D49FC
:101DC000FFF79AFF0B4908680021FEF7B7FB09D01F
:101DD000084A51681068FEF723FA05460649FEF7DF
:101DE00051FA044621464FF08040FEF719FA0149A6
:101DF000886070BD3402002000F07F4500B587B0D8
:101E000001214FF4017002F07BF94FF4004002F021
:101E10005BF90220ADF8180000208DF81B0006A920
:101E2000104800F02FFD00200190049001208DF853
:101E3000140000208DF808004FF46020039000206B
:101E40008DF8090001A90848FEF76EFE0121064839
:101E5000FEF751FE0723012211460348FEF78CFED0
:101E600007B000BD000801400024014010B5044641
:101E70001C480078C007B0EBC47F0FD004F001000D
:101E800038B101201849087002F0C1F902F0D4F904
:101E900004E000201449087002F0CEF904F00400B8
:101EA00028B11248007840F00100104908700D4830
:101EB000007800F0080004F0080188420FD004F018
:101EC000080030B10948007840F040000749087028
:101ED00005E00648007820F04000044908700148F9
:101EE000047010BD6C020020890200202002002036
:101EF0002DE9F04F87B005460E46144699462868EE
:101F0000049068680590A8680690B4F90010A1F2E2
:101F1000DC50FEF767FA07467C49FEF7B3F90190FB
:101F2000B4F90210A1F2DC50FEF75CFA07467749DB
:101F3000FEF7A8F90290B4F9061040F2DC52501AEC
:101F4000FEF750FA07467149FEF79CF90390704876
:101F5000007810B9002003900CE00398FEF78EFA89
:101F600021F00041074600226A4BFEF79BFA01D29E
:101F70000020039068480078C0F3801018B104A9CD
:101F800001A803F0E9FD6548049A019901F06AFD92
:101F90006348059A029901F065FD62497068FEF791
:101FA0003FF907465D483A46416B5F4801F05AFDEC
:101FB0005C493068FEF734F980F0004758483A46EB
:101FC000416B5A4801F04EFD5649B068FEF728F9BA
:101FD0000746574A11680398FEF722F980463A46A9
:101FE0004146544801F03EFDB4F90400B42863DDD5
:101FF000B9F1000F60D0B4F90400FEF7F3F982469E
:102000004A48416B5046FEF705F980464648416B09
:102010004046FEF7ADF807464648416B3846FEF7A6
:10202000A7F845490860B4F90400FEF7DBF98246D9
:102030003E48416B5046FEF7EDF880463A48416B0A
:102040004046FEF7E7F807463A48416B3846FEF748
:10205000E1F83A490860B4F90400FEF7C3F9824692
:102060003248416B5046FEF783F880462E48416B5C
:102070004046FEF7CFF807462E48416B3846FEF73C
:1020800077F82F490860B4F90400FEF7ABF98246EF
:102090002648416B5046FEF76BF880462248416B5C
:1020A0004046FEF765F807462248416B3846FEF782
:1020B000B1F82449086008E000201F4908601F4962
:1020C00008601F4908601F4908601E480068FEF745
:1020D000A8F907B21A480068FEF7A3F90FFA80F8CA
:1020E00016480068FEF79DF90FFA80FA124800685A
:1020F000FEF797F90FFA80FB3B4642465146584699
:1021000001F010FC07B0BDE8F08F00000000404176
:10211000880200200000104020020020D803002088
:1021200014040020A34C65428C040020C804002045
:102130005004002004050020780200207C020020CA
:1021400080020020840200202DE9F84F06460F4649
:1021500090469946DDF828B00024A246AA222146DE
:10216000641C874842542146641C4254F122214693
:10217000641C425400222146641C425400969DF87F
:1021800003202146641C42549DF802202146641C11
:1021900042549DF801202146641C42549DF80020C1
:1021A0002046611CCCB276490A5400979DF8032062
:1021B0002046611CCCB272490A549DF80220214687
:1021C000601CC4B26E4842549DF801202046611C38
:1021D000CCB26B490A549DF800202046611CCCB259
:1021E00067490A54CDF800809DF803202046611C01
:1021F000CCB263490A549DF802202046611CCCB23F
:102200005F490A549DF801202046611CCCB25C490C
:102210000A549DF800202046611CCCB258490A544B
:10222000CDF800909DF803202046611CCCB25449A3
:102230000A549DF802202046611CCCB250490A5431
:102240009DF801202046611CCCB24D490A549DF8EE
:1022500000202046611CCCB249490A54CDF800B098
:102260009DF803202046611CCCB245490A549DF8D4
:1022700002202046611CCCB241490A549DF801203D
:102280002046611CCCB23E490A549DF800202046ED
:10229000611CCCB23A490A540B9800909DF8032077
:1022A0002046611CCCB236490A549DF802202046D3
:1022B000611CCCB232490A549DF801202046611CB1
:1022C000CCB22F490A549DF800202046611CCCB2A4
:1022D0002B490A540C9800909DF803202046611C5D
:1022E000CCB227490A549DF802202046611CCCB28A
:1022F00023490A549DF801202046611CCCB2204994
:102300000A549DF800202046611CCCB21C490A5496
:102310000D9800909DF803202046611CCCB218490E
:102320000A549DF802202046611CCCB214490A547C
:102330009DF801202046611CCCB211490A549DF839
:1023400000202046611CCCB20D490A54201FC870E1
:10235000002506E00A48405D504400F0FF0A681C72
:10236000C5B2A542F6DB2046611CCCB2044901F897
:1023700000A021460248FFF76FF9BDE8F88F000082
:102380007403002000201E49088048808880C8808F
:10239000088148814FF4E16088810820C88132209B
:1023A00008824FF4E1604882082088823220C88287
:1023B00040F6AC500883002048834FF47A7088833D
:1023C00040F2A230C883052008844FF45770488437
:1023D00040F2A23088840520C8844FF457700885E5
:1023E0004FF4FA604885322088854FF47A70C885AA
:1023F0000020088648868886C886088748877047F0
:10240000B805002070B5FFF7BDFF3E242046E11758
:1024100004EB91718910A4EB8101091D09B101211F
:1024200000E0002194FBF1F1CDB22A4602490348B5
:1024300002F0D6FA70BD0000B805002000F80108CF
:1024400010B56FF0040002F0EBFC0A4800680A497E
:10245000B0FBF1F0094908700846007800EB400134
:10246000C1EBC0104FF6FF7101EAC00004490880BB
:1024700010BD00001400002000127A003C00002073
:102480003E000020014600224FF0E0231A610E4A70
:1024900012884A435A6100229A611A46126942F030
:1024A00001021A6100BF4FF0E022106900F0010242
:1024B0001AB100F48032002AF5D000224FF0E02358
:1024C0001A619A61704700003E0000200146002218
:1024D0004FF0E0231A610E4A12784A435A610022F3
:1024E0009A611A46126942F001021A6100BF4FF068
:1024F000E022106900F001021AB100F48032002AD3
:10250000F5D000224FF0E0231A619A617047000075
:102510003C00002010B5012000F042F8002834D023
:102520001A48006840F0100018490860072002F0BF
:1025300019F9044604F0200050B10F2002F070F9A0
:102540002021272002F050F9FF21E12002F04CF970
:1025500004F0400040B10E4802F068F801F002FFBC
:102560004021272002F040F904F0100050B10F2064
:1025700002F056F91021272002F036F9FF21E12060
:1025800002F032F9012000F005F810BD14080140F6
:102590004A0300200149086070470000140401400C
:1025A000014600200022074B1B6803EA0102054B8D
:1025B00014331B680B4013B10AB1012000E0002066
:1025C0007047000000040140002123498279002A5D
:1025D0003AD00A46126803689A430B461A600A1DED
:1025E000126803689A430B1D1A60027911440A6845
:1025F00003681A430A60184A0832126803689A434B
:10260000154B08331A601A1D126803689A43124B5F
:102610000C331A604279102A0ED11A1F126803680F
:102620001A430D4B08331A601A1D126803681A43C7
:10263000094B0C331A600DE00749427911440A68CE
:1026400003681A430A6005E0027911440A680368C6
:102650009A430A6070470000000401400EB5012152
:10266000092001F04DFD0021012000F0EBF80120D0
:10267000ADF8080048208DF80B0003208DF80A0003
:1026800002A9094800F0FEF80120009000208DF812
:1026900004000C208DF8050001208DF80600684626
:1026A000FFF792FF0EBD0000000C014030B504465C
:1026B00004254FF4302000F085F80546042D17D18D
:1026C0000C48006940F002000A490861084644616C
:1026D000006940F0400008614FF4302000F072F8CB
:1026E00005460448006941F6FD710840014908614A
:1026F000284630BD0020024004200B49C96801F083
:10270000010109B101200EE00749C96801F0040187
:1027100009B1022007E00449C96801F0100109B1BC
:10272000032000E0042070470020024003480069B5
:1027300040F080000149086170470000002002401D
:1027400078B506460C46042500200090E80200F00B
:1027500039F80546042D24D11348006940F00100E2
:10276000114908613480E80200F02CF80546042D78
:1027700010D1B01C0090200C00990880E80200F0F5
:1027800021F805460848006941F6FE7108400649EF
:10279000086106E00448006941F6FE7108400249FC
:1027A0000861284678BD0000002002400248034925
:1027B0004860034848607047230167450020024095
:1027C000AB89EFCD00B502460423FFF795FF034622
:1027D00003E0FFF791FF0346521E012B01D1002AAF
:1027E000F7D102B90523184600BD2DE9F041054691
:1027F0000C46164655F824701BE000E0761EB442E5
:1028000005DA55F826003946FDF7A2FEF6D955F847
:10281000260045F8240000E0641CB44205DA55F8AF
:1028200024003946FDF78AFEF6D955F8240045F80C
:102830002600B442E1DB45F824702046FDF7D2FDC6
:10284000BDE8F08130B500228B071C0F0F2303FA7F
:1028500004F20B4B8C1053F824309343084C8D102A
:1028600044F8253023468C1053F824308C07240F6D
:1028700000FA04F42343024C8D1044F8253030BD97
:10288000080001402DE9F041024600250026002005
:1028900000230024002791F803C00CF00F0591F8E5
:1028A00003C00CF0100CBCF1000F03D091F802C073
:1028B0004CEA050591F800C0BCF1000F31D0146856
:1028C00000202BE04FF0010C0CFA00F3B1F800C02F
:1028D0000CEA03069E4220D183004FF00F0C0CFA45
:1028E00003F7BC4305FA03FC4CEA040491F803C067
:1028F000BCF1280F06D14FF0010C0CFA00FCC2F815
:1029000014C00AE091F803C0BCF1480F05D14FF0A4
:10291000010C0CFA00FCC2F810C0401C0828D1D3EE
:102920001460B1F800C0BCF1FF0F34DD5468002022
:102930002EE000F1080C4FF0010808FA0CF3B1F892
:1029400000C00CEA03069E4221D183004FF00F0C19
:102950000CFA03F7BC4305FA03FC4CEA040491F8B3
:1029600003C0BCF1280F05D100F1080C08FA0CF8DF
:10297000C2F8148091F803C0BCF1480F07D100F1F0
:10298000080C4FF0010808FA0CF8C2F81080401C3F
:102990000828CED35460BDE8F081416170470161E1
:1029A000704710B501F048FC01F024FC6420FFF7EB
:1029B00069FD01F041FC6420FFF764FD01F01AFCA1
:1029C0006420FFF75FFD01F037FC6420FFF75AFD3C
:1029D00001F010FC6420FFF755FD01F02DFC10BD47
:1029E00010B504460723012221460948FEF7C4F822
:1029F00001210748FEF71CF900BF02210448FEF739
:102A000089F80028F9D00248FEF780F810BD0000D0
:102A10000024014010B540200A49086001F0FEFC86
:102A20008020084908600120FFF750FD402005493B
:102A3000091F08600220FFF749FD40200149086096
:102A400010BD0000140C014008B50121082001F060
:102A500057FBC020ADF8000010208DF803000320C4
:102A60008DF8020069460648FFF70CFF4021044834
:102A7000FFF795FF80210248FFF791FF08BD000096
:102A8000000C014010B540200A49086001F0C6FC66
:102A900080200849091F08600120FFF717FD40202A
:102AA0000449091F08600120FFF710FD402001497B
:102AB000086010BD140C014070B50546002401F0FB
:102AC0009BFC002618E04020104908600120FFF719
:102AD000FDFC40200D49091F08606006040E0B48EC
:102AE0000C380068C0F3C01008B1601CC4B20120EB
:102AF000FFF7ECFC701CC6B2082EE4DB15B1FFF743
:102B000089FF01E0FFF7BEFF204670BD140C0140B5
:102B100070B504460D46164600F084F8204600F0D5
:102B200053F800F0B3F808B1012070BD284600F05A
:102B30004BF800F0ABF800F075F8611CC8B200F07B
:102B400043F800F0A3F80020FFF7B6FF307000F064
:102B500083F80020E9E72DE9F04706460F461546C1
:102B60009846002400F05EF8304600F02DF800F0A2
:102B70008DF820B100F070F80120BDE8F0873846EC
:102B800000F022F800F082F800F04CF8711CC8B296
:102B900000F01AF800F07AF800240FE0681EA04256
:102BA00004D00120FFF788FF814603E00020FFF7F3
:102BB00083FF814608F80490601CC4B2AC42EDDB90
:102BC00000F04AF80020D8E770B5044601F026FC72
:102BD00040201349086000251EE004F0800020B169
:102BE00080200F49091F086002E080200C4908601E
:102BF0006006040E0420FFF769FC40200849091F05
:102C000008600420FFF762FC4020054908600420AA
:102C1000FFF75CFC681CC5B2082DDEDB70BD000050
:102C2000140C014010B501F0F9FB4020094908607F
:102C3000802008600520FFF749FC80200549091D18
:102C400008600520FFF742FC40200249091D08608A
:102C500010BD0000100C014010B501F0DFFB40205A
:102C600009490860802008600520FFF72FFC4020FC
:102C70000549091F08600520FFF728FC802002494C
:102C8000091F086010BD0000140C014010B500249D
:102C900001F0B2FB8020104908600520FFF716FC08
:102CA00040200D4908600120FFF710FC07E0601C80
:102CB000C4B2FA2C03DDFFF7CFFF012010BD064898
:102CC00008380068C0F3C0100028F0D14020024945
:102CD000091D08600020F1E7100C014070B50646A0
:102CE0000C461546FFF79EFF3046FFF76DFFFFF7D6
:102CF000CDFF18B1FFF7B0FF012070BD2046FFF7F0
:102D000063FFFFF7C3FF2846FFF75EFFFFF7BEFF35
:102D100018B1FFF7A1FF0120EFE7FFF79DFF0020AB
:102D2000EBE7000007B5AEB02422FE4923A8FDF76B
:102D30000DFA2F98006822902F98406821902F98C4
:102D4000806820902E9800681F902E9840681E90F2
:102D50002E9880681D90F44801680068FDF760FABD
:102D60001590F2480168F0480068FDF759FA149090
:102D7000EF480168EC480068FDF752FA1390ED48FF
:102D80000168E9480068FDF74BFA1290E7480168CE
:102D90000068FDF745FA1190E5480168E3480068CE
:102DA000FDF73EFA1090E3480168E0480068FDF73F
:102DB00037FA0F90DE4801680068FDF731FA0E908F
:102DC000DC480168DA480068FDF72AFA0D90D94816
:102DD00001680068FDF724FA0C90DDE92110FDF789
:102DE0001FFA0A902099FDF71BFA00210B90FDF7BE
:102DF000A5FB01D131B000BD20990846FDF710FABE
:102E00000A9021990846FDF70BFA08902299084686
:102E1000FDF706FA07900899FDF7AAF909900A99B3
:102E2000FDF7A6F90B9003F03DFC16901699229839
:102E3000FDF7F6F9229016992198FDF7F1F9219006
:102E400016992098FDF7ECF9209013990F98FDF74B
:102E5000E1F94FF080410B90FDF7E2F91C900D99DC
:102E60001498FDF785F94FF080410B90FDF7D8F9E4
:102E70001B9011991598FDF7CDF90A900E99FDF761
:102E8000C9F90B900C99FDF773F91A901B992098CA
:102E9000FDF7C6F90B901A992198FDF7C1F90A9030
:102EA0000B99FDF7B7F919901A992298FDF7B8F91F
:102EB0000B901C992098FDF7B3F90A900B99FDF738
:102EC000A9F918901C992198FDF7AAF90B901B9964
:102ED0002298FDF7A5F90A900B99FDF79BF9179039
:102EE00095491998FDF79CF90B90944801680B9847
:102EF000FDF73EF9914908608F491898FDF790F960
:102F00000B908F4801680B98FDF732F98C490860E7
:102F100089491798FDF784F90B908A4801680B9846
:102F2000FDF726F9874908604FF07F501999FDF7A2
:102F300077F90A901F99FDF71BF90B907F480168FC
:102F40000B98FDF715F91F904FF07F501899FDF77A
:102F500067F90A901E99FDF70BF90B907848016804
:102F60000B98FDF705F91E904FF07F501799FDF76C
:102F700057F90A901D99FDF7FBF80B90714801680D
:102F80000B98FDF7F5F81D906A481D990068FDF74C
:102F900047F9099066481E990068FDF741F90790C6
:102FA0006248006880F0004005901F99FDF738F9ED
:102FB00006900799FDF72EF908900999FDF72AF96F
:102FC0005D490A90FDF72CF90B90574801680B9862
:102FD000FDF7CEF85449086056481E990068FDF781
:102FE0001FF9099052481D990068FDF719F90790DB
:102FF0004D481F990068FDF713F906900799FDF7F2
:10300000B7F808900999FDF705F94B490A90FDF7C3
:1030100007F90B90454801680B98FDF7A9F843495B
:10302000086044481F990068FDF7FAF809903F4886
:103030001D990068FDF7F4F807903B481E99006859
:10304000FDF7EEF806900799FDF7E4F80890099966
:10305000FDF78EF838490A90FDF7E2F80B903448F6
:1030600001680B98FDF784F83149086030481F99D2
:103070000068FDF7D5F809902C481E990068FDF707
:10308000CFF8079028481D990068FDF7C9F8069009
:103090000799FDF76DF808900999FDF7BBF82649E7
:1030A0000A90FDF7BDF80B90224801680B98FDF7D8
:1030B0005FF820490860084601680068FDF7B0F82D
:1030C0000A901B4801680068FDF7AAF808901748A5
:1030D00001680068FDF7A4F80690134801680068CD
:1030E000FDF79EF805900699FDF742F807900899BC
:1030F000FDF73EF809900A99FDF73AF80B9003F0B6
:10310000D1FA1690084816990068FDF789F8064923
:103110000860064816990068FDF782F803490860C0
:10312000034811E000690008B0020020B40200204A
:10313000B8020020BC0200200AD7A33BC002002036
:10314000C4020020C802002016990068FDF768F844
:1031500075490860754816990068FDF761F873496C
:10316000086011991598FDF703F80A900E99FDF77C
:1031700051F80B900C99FDF74DF823901299109887
:10318000FCF7F6FF4FF080410B90FDF749F82490D3
:1031900013990F98FDF73EF84FF080410B90FDF723
:1031A0003FF8259012991098FDF734F84FF08041C0
:1031B0000B90FDF735F8269011991598FDF72AF830
:1031C0000A900E99FCF7D4FF0B900C99FDF722F8AA
:1031D000279014990D98FCF7CBFF4FF080410B908E
:1031E000FDF71EF8289013990F98FCF7C1FF4FF0D8
:1031F00080410B90FDF714F8299014990D98FDF774
:1032000009F84FF080410B90FDF70AF82A901199C8
:103210001598FCF7FFFF0A900E99FCF7FBFF0B9047
:103220000C99FCF7A5FF2B902E98806840490990D7
:10323000FCF7F6FF3F490A90FCF7F2FF0B9030983D
:10324000806801460A900B98FCF792FF30998860DD
:1032500013990F98FCF7DEFF4FF080410490FCF7C4
:10326000DFFF0590FDF70AF9CDE9060102F034FE13
:1032700081F000414FF0C0422F4BCDE90801FDF72E
:103280003FF8CDE90A01FDF73DF930990860119941
:103290001598FCF7BFFF01900E99FCF7BBFF029059
:1032A0000C99FCF765FF0390FDF7E8F8CDE90601FE
:1032B0004FF080401499FCF7B3FF02904FF080402C
:1032C0000D99FCF7ADFF01900299FCF751FF0390B7
:1032D000FDF7D4F8CDE90401DDE9062303F044F855
:1032E00081F000414FF0C042134BCDE90801FDF7DA
:1032F00007F8CDE90A01FDF705F93099486000208B
:103300002C900AE023A92C9851F820100B4A42F87F
:1033100020102C98401CC0B22C902C980928F1DB6E
:1033200001F0A2FB00BF65E5B8020020BC0200204E
:10333000A34C65420AD7233C66A64C404C0B0020A8
:1033400008B50121082000F0DBFE0121102000F06B
:10335000D7FE4FF40070ADF8000010208DF8030088
:1033600003208DF8020069461748FFF78BFA4FF4E7
:103370008040ADF8000014208DF8030003208DF884
:10338000020069461148FFF77DFA4FF40050ADF88E
:10339000000014208DF8030003208DF80200694618
:1033A0000A48FFF76FFA4FF480410848FFF7F5FA33
:1033B0004FF400510548FFF7F2FA4FF4007102484C
:1033C000FFF7EBFA08BD0000000C014000100140BF
:1033D00010B50A48007840B10020084908704FF441
:1033E00080410748FFF7DBFA06E001200349087037
:1033F00081030348FFF7D1FA10BD0000010200204D
:103400000010014010B5FEF7D1FC1F480078D0B184
:103410001E4AD1689068FDF791F80ED21C480178D9
:103420000078401C1A4A10700A292BDD0020114632
:10343000087001201749087024E000201449087022
:10344000144908701EE0114988681349FDF776F8A1
:1034500010D2124801780078401C104A10700A29D6
:1034600010DD00200E49087011460870012009493E
:10347000087007E001200A49087000200749087019
:103480000449087010BD00008902002034020020A9
:103490004A02002048020020CDCC6C4049020020A6
:1034A0000002002000B589B0012140F6040000F0C0
:1034B00027FE4FF47060ADF8200018208DF823002F
:1034C00003208DF8220008A94A48FFF7DBF940F2F3
:1034D000E730ADF818006420ADF814000020ADF816
:1034E0001600ADF81A0005A9434801F051FF00206D
:1034F000ADF80A006020ADF804000120ADF8060028
:103500000420ADF808000020ADF80C00ADF80E0066
:10351000ADF81000ADF8120001A9374801F0DCFD4C
:103520000821354801F024FE0020ADF80A00602093
:10353000ADF804000120ADF806000420ADF8080045
:103540000020ADF80C00ADF80E00ADF81000ADF89D
:10355000120001A9284801F015FE0821264801F0B3
:1035600063FE0020ADF80A006020ADF804000120E1
:10357000ADF806000420ADF808000020ADF80C00FE
:10358000ADF80E00ADF81000ADF8120001A91A4810
:1035900001F058FE0821184801F0A4FE0020ADF803
:1035A0000A006020ADF804000120ADF806000420F8
:1035B000ADF808000020ADF80C00ADF80E00ADF835
:1035C0001000ADF8120001A90B4801F095FE08218A
:1035D000094801F0CFFE0121074801F030FD01212B
:1035E000054801F011FD0121034801F01CFD09B05F
:1035F00000BD000000080140002C014010B504E0AF
:1036000004A002F0E9FA00F08BFE00F082F9002835
:10361000F6D010BD0D4D505536303530206E6F2030
:10362000636F6E6E6563742E2E2E0D0A000000000F
:1036300008B50121042000F063FD4FF40040ADF80F
:10364000000010208DF8030003208DF80200694669
:103650001648FFF717F94FF400411448FFF79DF99A
:10366000FFF7CCFF80216B2000F03EF96420FEF7CD
:1036700009FF01216B2000F037F90021382000F00C
:1036800033F918211B2000F02FF908211C2000F02D
:103690002BF904211A2000F027F90021192000F04D
:1036A00023F90221372000F01FF908BD000801406E
:1036B0000FB52B480088A0B90020ADF80000ADF888
:1036C0000200ADF80400274908602749086027492F
:1036D00008600120224908800023002010805080CB
:1036E0009080BDF900001F49096808441D49086021
:1036F000BDF902001C49096808441B490860BDF96E
:103700000400C01A19490968084418490860144897
:103710000088C8281DD1134800681149098890FB0A
:10372000F1F000B21080104800680D49098890FB44
:10373000F1F000B250800D4800680949098890FBFB
:10374000F1F000B29080002005490880012004B00B
:1037500000BD03480088401C014908800020F6E7AE
:103760003002002024020020280200202C02002029
:103770001CB5444840784349097840EA0120424951
:103780000988401A00B2414908803E48C0783D4946
:10379000897840EA01203C494988401A00B23B49F7
:1037A0004880384840793749097940EA012036494C
:1037B0008988401A00B2354988803248407A3149B8
:1037C000097A40EA012032490988401A00B2314999
:1037D00008802C48C07A2B49897A40EA01202C497C
:1037E0004988401A00B22B4948802648407B254929
:1037F000097B40EA012026498988401A00B2254900
:1038000088802548007800F00100E0B10846016892
:1038100000918088ADF8040000231D4ADDE9000115
:10382000FFF746FF78B11C48007820F001001A49E4
:10383000087000F0D1F9FFF7B4F81748007840F0AD
:1038400002001549087014480078C0F34000B8B170
:103850000E48016800918088ADF8040042F204032C
:10386000094ADDE90001FFF723FF48B10A48007863
:1038700020F002000849087000F0AEF9FDF71CF9CD
:103880001CBD00001C0300200E02002014020020BA
:10389000080200201A0200202002002010B5034A6E
:1038A0000E213B2000F011F810BD00001C03002089
:1038B00070B504460D462A462146D020FFF728F968
:1038C00008B1012070BD0020FCE770B504460D462C
:1038D000164633462A462146D020FFF73CF908B168
:1038E000012070BD0020FCE770B504460D462A4655
:1038F0002146D020FFF7F2F908B1012070BD002069
:10390000FCE708B569467520FFF7D2FF9DF8000077
:1039100008BD10B5FFF7F5FF682801D1012010BDE3
:103920000020FCE730B5B0F57A7F01DD4FF47A7006
:10393000B1F57A7F01DD4FF47A71B2F57A7F01DD5E
:103940004FF47A72B3F57A7F01DD4FF47A73002871
:1039500000DA0020002900DA0021002A00DA002223
:10396000002B00DA0023054D28802D1F2980034DF0
:1039700008352A802D1F2B8030BD0000382C0140D7
:1039800070B5002100230F22C47804B3154C2468BD
:1039900004F4E064C4F5E064210AC1F10403CA4000
:1039A000447804FA03F184781440214309010E4C51
:1039B0000678A155047804F01F050124AC40057871
:1039C0006D11AD0005F1E025C5F8004109E004786E
:1039D00004F01F050124AC40044D0678761145F82B
:1039E000264070BD0CED00E000E400E080E100E066
:1039F00002490143024A1160704700000000FA05C5
:103A00000CED00E008B54FF4A060FFF7F1FF1E20B9
:103A10008DF8000001208DF801008DF802008DF86E
:103A200003006846FFF7ACFF26208DF80000022057
:103A30008DF8010001208DF802008DF80300684622
:103A4000FFF79EFF06208DF8000002208DF8010090
:103A50008DF8020001208DF803006846FFF790FF03
:103A600008BD00002DE9F04104460E4615462946E2
:103A70003046FCF7CFFBE060A169E068FCF7CAFBC9
:103A80006061E1682068FCF7CBFBA06294F8380025
:103A9000FCF7B1FC80466168FCF7C2FB0746216970
:103AA000FCF7BEFBE0626169A068FCF7B9FB20632C
:103AB000D4E90A01FCF75CFB0746216BFCF758FBD5
:103AC00060631E480078012832D11D48B0F9040017
:103AD000B0F52F7F2CDB2846216AFCF739FD07D390
:103AE000206A80F0004729463846FCF731FD03D2B2
:103AF000002084F838001DE0012084F83800D4E963
:103B00000310FCF735FB2061616A2069FCF720FD9A
:103B100001D2606A2061606A80F0004738462169FE
:103B2000FCF716FD06D2606A80F00040206101E0DB
:103B300000202061E068A061BDE8F08189020020DA
:103B40006402002070B53E242046E11704EB917119
:103B50008910A4EB8101091D09B1012100E00021B8
:103B600094FBF1F1CDB22A460E490F4800F024FF34
:103B700001F060FC0B48408A4FF6FF7188420DD17E
:103B800008488089884209D10648008B884205D1BF
:103B9000FEF738FC05A002F01FF802E009A002F0D1
:103BA0001BF870BDB805002000F80108466C617371
:103BB000682052656164204572726F722121210D67
:103BC0000A000000466C6173682052656164204FF2
:103BD0004B2121210D0A000070B500F01BF83E2496
:103BE0002046E11704EB91718910A4EB8101091DB6
:103BF00009B1012100E0002194FBF1F1CDB22A4688
:103C00000249034800F0ECFE70BD0000B80500203A
:103C100000F8010810B5834800888349088081486E
:103C2000408848807F488088888080480088C88095
:103C30007E48408808817D48808848817C490868A2
:103C40007C49FCF7EDFA0446FCF704FC76498881D0
:103C5000774948687749FCF7E3FA0446FCF7FAFB32
:103C60007149C881724988687249FCF7D9FA0446DB
:103C7000FCF7F0FB6C4908826F4908686D49FCF756
:103C8000CFFA0446FCF7E6FB674948826A49486870
:103C90006849FCF7C5FA0446FCF7DCFB62498882F8
:103CA000654988686349FCF7BBFA0446FCF7D2FB18
:103CB0005D49C882614908685E49FCF7B1FA04466B
:103CC000FCF7C8FB584908835C4948685949FCF728
:103CD000A7FA0446FCF7BEFB534948835749886856
:103CE0005449FCF79DFA0446FCF7B4FB4E4988831F
:103CF000534908684F49FCF793FA0446FCF7AAFBBE
:103D00004949C8834E4948684A49FCF789FA04463C
:103D1000FCF7A0FB44490884494988684549FCF7F9
:103D20007FFA0446FCF796FB3F49488445490868FA
:103D30004049FCF775FA0446FCF78CFB3A49888445
:103D4000404948683B49FCF76BFA0446FCF782FBA4
:103D50003549C8843B4988683649FCF761FA04460E
:103D6000FCF778FB30490885374908683149FCF78A
:103D700057FA0446FCF76EFB2B49488532494868E0
:103D80002C49FCF74DFA0446FCF764FB264988856C
:103D90002D4988682749FCF743FA0446FCF75AFB8B
:103DA0002149C885294908682249FCF739FA04469F
:103DB000FCF750FB1C490886244948681D49FCF75C
:103DC0002FFA0446FCF746FB174948861F498868C6
:103DD0001849FCF725FA0446FCF73CFB1249888693
:103DE0001B4908681349FCF71BFA0446FCF732FB31
:103DF0000D49C886164948680E49FCF711FA044671
:103E0000FCF728FB08490887114988680949FCF72D
:103E100007FA0446FCF71EFB034948870D48007863
:103E2000888710BD0E020020B8050020080200207F
:103E3000D803002000007A4414040020500400201D
:103E40008C040020C8040020040500204005002048
:103E50007C0500204B02002000201E4981F838001C
:103E60001D4808621D48486200201D4981F838003D
:103E70001C4808621C48486200201C4981F8380030
:103E800015480862154848620020194981F8380031
:103E900014480862144848620020164981F8380026
:103EA0000D4808620D4848620020134981F8380027
:103EB0000C4808620C4848620020104981F838001C
:103EC000086248620E4981F838000E4808620648C8
:103ED000486270478C04002000001643000096449E
:103EE000D803002000000C4200004843C804002012
:103EF0001404002004050020500400204005002088
:103F00007C0500200000C84270B5FFF7C7FCFFF732
:103F10002FFC0C225149524800F0F4FE4F4908682A
:103F20005049FCF77DF904464F49FCF779F94B49B4
:103F3000086048684B49FCF773F904464A49FCF7A6
:103F40006FF94649486088684649FCF769F90446B4
:103F50004549FCF765F9414988604449B1F90000D9
:103F6000FCF740FA04464249FCF75AF94149086017
:103F70003E49B1F90200FCF735FA04463C49FCF72A
:103F80004FF93C4948603949B1F90400FCF72AFA75
:103F900004463749FCF744F93649886036480078CA
:103FA00000283CD0354908683549FCF739F9044602
:103FB0002A4908683349FCF733F905462146FCF7DE
:103FC000D7F8264908602D4948682D49FCF728F99B
:103FD0000446224948682B49FCF722F90546214648
:103FE000FCF7C6F81D494860244988682449FCF755
:103FF00017F90446194988682249FCF711F9054662
:104000002146FCF7B5F815498860084600681B4949
:1040100008601248406848601048806888600F480F
:104020000068194908600D48406848600B4880687E
:10403000886008680021FCF781FA0ED012494868B0
:104040000021FCF77BFA08D00F4988680021FCF7B3
:1040500075FA02D001200D49087070BD1C0B0020BC
:104060001402002040DAFF380AE81C411A0200203E
:1040700045798B3A040B0020CC020020340B002041
:10408000CDCCCC3D6666663F400B0020AC020020E4
:104090002DE9F04107460D461646B54212DA324682
:1040A00029463846FEF7A1FB8046FCF7BAF90446DC
:1040B000621E29463846FFF7EBFF3246611C384640
:1040C000FFF7E6FFBDE8F08101460020034A506893
:1040D00020F4404008435060704700000010024048
:1040E00029B1064AD2690243044BDA6104E0034A6B
:1040F000D2698243014BDA61704700000010024030
:1041000029B1064A92690243044B9A6104E0034ACA
:1041100092698243014B9A6170470000001002408F
:1041200030B500210022002400232D4D6D6805F0DC
:104130000C0121B1042905D0082923D105E0294D1E
:10414000056022E0274D05601FE0254D6D6805F4F0
:104150007012234D6D6805F48034022505EB924200
:104160001CB9214D554305600BE01D4D6D6805F4EC
:1041700000351DB11C4D5543056002E0194D5543F6
:10418000056002E0174D056000BF00BF144D6D686B
:1041900005F0F0010909154D6B5C0568DD404560CF
:1041A0000F4D6D6805F4E061090A104D6B5C4568C0
:1041B000DD4085600A4D6D6805F46051C90A0B4DFC
:1041C0006B5C4568DD40C560054D6D6805F4404198
:1041D000890B074D6B5CC568B5FBF3F5056130BD18
:1041E0000010024000127A0000093D002800002063
:1041F0003800002010B5002406E0FF220021084608
:1042000001F09CFC601CC4B2042CF6DB10BD10B5A0
:1042100000240EE0022C05DA00221146FF2001F0F6
:104220008DFC04E00022FF21104601F087FC601C99
:10423000C4B2042CEEDB10BD10B5002406E0002251
:104240001146104601F07AFC601CC4B2042CF6DB67
:1042500010BD10B5002406E00022FF21104601F039
:104260006DFC601CC4B2042CF6DB10BDF0B500255B
:1042700000260027264801780078401C244A107048
:10428000102907DB00201146087022480078401CE6
:1042900020490870002431E01F480078042802DD1E
:1042A00000201D4908701D481A49097800EB81104B
:1042B0001949097850F82100C0F3074517481549F6
:1042C000097800EB81101449097830F82100C0F317
:1042D000072612480F49097800EB81100E4909782A
:1042E00010F821703A462946304601F027FC0A486A
:1042F0000078401C08490870601CC4B2042CCBDB59
:1043000004480078072802D1002002490870F0BD57
:1043100004020020030200200202002040000020CE
:1043200010B5002406E000221146FF2001F006FC33
:10433000601CC4B2042CF6DB10BD00B5034600229D
:1043400000BF0BE003FA02F000F0010010B101F031
:10435000ABFB01E001F05EFB501CC2B2082AF1DBAE
:1043600000BD000010B501201F4908701F48C07A29
:10437000A52800D010BD1D48007800F0010020B332
:104380001A4880781949C97840EA012000B21849D2
:10439000C880164800791549497940EA012000B2E1
:1043A00013498880114880791049C97940EA012071
:1043B00000B20F4908800D48007A0C49497A40EA5A
:1043C000012000B20A49488008E00848007800F05F
:1043D000080018B105494878FDF748FD0348807A80
:1043E0000449087000BFC5E7880200204A03002086
:1043F000640200206202002008B501210820FFF7B6
:104400007FFE8020ADF8000004208DF8030069468F
:104410000148FEF737FA08BD000C014008B501213C
:104420000820FFF76DFE8020ADF8000010208DF809
:10443000030003208DF8020069460248FEF722FAC5
:1044400008BD0000000C014010B504E004A001F01C
:10445000C3FBFFF7FEFE00F0A1F90028F6D010BD67
:104460000D20534932345231206E6F20636F6E6ECF
:104470006563742E2E2E0D0A0000000010B51E4834
:10448000006840F010001C4908600321232000F060
:10449000ABF905221949302000F03EF905221749F1
:1044A0002A2000F039F91A21242000F09DF9012179
:1044B000222000F099F90121212000F095F9202116
:1044C000312000F091F905220D492A2000F024F94D
:1044D0001E21252000F088F92721262000F084F9EC
:1044E0000F2000F09DF90448001F006840F0100004
:1044F0000149091F086010BD140801404C0200204A
:104500005102002010B513480078322810DD4FF01A
:10451000E0218869FBF712FEFBF706FE322190FBD3
:10452000F1F201FB12000B490870FFF755FB0FE099
:104530000948007907490978884209D00548007878
:10454000054908710348007804490871FFF796FF90
:1045500010BD00004B0200204C0200205102002040
:1045600008B501210C20FFF7CBFD0220ADF80000BB
:1045700010208DF8030003208DF8020069461648CC
:10458000FEF780F902211448FEF707FA1020ADF873
:1045900000008DF8030003208DF8020069460F48E3
:1045A000FEF770F910210D48FEF7F9F900F098F9BF
:1045B000FFF74AFF08481030006840F00200064943
:1045C0001031086005481430006840F010000349BD
:1045D0001431086008BD0000000C014000080140D3
:1045E0002DE9F04107460C4615460F48006840F09B
:1045F00002000D490860384600F04AF9804600265E
:1046000005E0FF2000F044F92070641C761CAE42E7
:10461000F7DB0548001F006840F002000249091F4F
:1046200008604046BDE8F081140C014010B5044616
:104630000B48006840F0100009490860202221461C
:104640006120FFF7CDFFFF21E22000F0CDF8044804
:10465000001F006840F010000149091F086010BDEC
:104660001408014010B50F480078C8B10E48007812
:1046700050B10E4800780E490978884204D101F003
:10468000B9F9FFF7E6FD07E00748007820B10948CF
:10469000007808B9FFF7BBFD0448007804490870AA
:1046A00010BD000088020020890200206202002064
:1046B0006D0200204802002010B50446144800682E
:1046C00040F010001249086005221249302000F025
:1046D00023F805220F492A2000F01EF82022214647
:1046E000A02000F019F80E21202000F07DF87E2196
:1046F000272000F079F80648001F006840F01000FD
:104700000349091F08600A20FDF7E0FE10BD000004
:10471000140801404C0200202DE9F04107460C46E8
:1047200015460F48006840F002000D490860384601
:1047300000F0AEF88046002604E0207800F0A8F8EB
:10474000641C761CAE42F8DB0548001F006840F090
:1047500002000349091F08604046BDE8F0810000DF
:10476000140C014070B504460B48006840F002008C
:1047700009490860204600F08BF8FF2000F088F817
:1047800005460548001F006840F002000249091F65
:104790000860284670BD0000140C01401CB510A133
:1047A00003C9CDE90001052269463020FFF7B4FFB7
:1047B000052269461020FFF713FF002406E01DF8CC
:1047C0000400A52800D003E0601CC4B2052CF6DB71
:1047D00000BF052C01D000201CBD0120FCE700001B
:1047E000A5A5A5A5A500000070B505460C460B487B
:1047F000006840F0020009490860284600F048F8C7
:104800000646204600F044F80448001F006840F0C7
:1048100002000249091F0860304670BD140C0140B7
:1048200010B504460E2C16D11848006840F0100050
:10483000164908600E212020FFF7D6FF7E21272091
:10484000FFF7D2FF1148001F006840F010000F4929
:10485000091F086018E00D48006840F010000B497F
:1048600008600F212020FFF7BFFF7E212720FFF7E0
:10487000BBFF0648001F006840F010000349091FF5
:104880000860C820FDF722FE10BD0000140801409A
:1048900010B5044600BF02210A4800F061F8002864
:1048A000F9D02146074800F067F800BF012105480C
:1048B00000F056F80028F9D0024800F05AF8C0B2CB
:1048C00010BD00000030014021B1028842F04002DA
:1048D000028004E002884FF6BF731A4002807047DE
:1048E00000B587B001210420FFF70AFC012108036D
:1048F000FFF706FCE020ADF8040018208DF8070053
:1049000003208DF8060001A91348FDF7BBFF4FF403
:104910008270ADF80A004FF40070ADF8120000206C
:10492000ADF81000ADF80E00ADF80C001820ADF891
:1049300014000020ADF80800ADF816000720ADF80F
:10494000180002A9054800F019F801210348FFF7F3
:10495000BBFF07B000BD000000080140003001406F
:104960000246002013890B400BB1012000E000201B
:1049700070470146888970478181704710B50022D1
:10498000028802F441520B884C8823438C882343CD
:10499000CC8823430C8923434C8923438C892343AC
:1049A000CC8923431A430280838B4FF2FF74234048
:1049B00083830B8A038210BD30B503460C4615462F
:1049C000002206E0184600F007F844F822001B1DFC
:1049D000521CAA42F6D330BD014608687047000059
:1049E0002DE9F04704460E4617464FF0040800250F
:1049F000A946B4F1006F02D31948844201D3BDE83F
:104A0000F087FDF7D3FE254604EB8709144885425D
:104A100011D20DE02846FFF7DFFF401C38B11148E6
:104A2000FDF744FE8046B8F1040F01D002E02D1DD1
:104A30004D45EFD300BFB8F1040F0CD108E020467C
:104A40003168FDF77DFE042800D003E0241D361DEB
:104A50004C45F4D300BFFDF769FE00BFCFE700006F
:104A60000000020800F8010870B51E494868FBF70D
:104A700005FD21F00041044600221B4BFBF72AFDF7
:104A80000BD318490868FBF7F9FC21F000410446F4
:104A90000022154BFBF71EFD22D214490868FBF7D4
:104AA000EDFC21F0004104460022114BFBF712FD02
:104AB0000BD30E494868FBF7E1FC21F000410446A6
:104AC00000220B4BFBF706FD0AD2002009490870B3
:104AD00009490860094908600949086009490860EE
:104AE00070BD0000F80A0020008046401C0B00202A
:104AF0000000224089020020780200207C02002071
:104B0000800200208402002038B53C48007830B193
:104B10003B48007840F010003949087005E03848FB
:104B2000007820F0100036490870FF2035490870E1
:104B30003348007848703448B0F9040000909DF87C
:104B4000010088709DF80000C870304988683049BD
:104B5000FBF766FB0446FBF764FC00B200909DF88F
:104B60000100284908719DF80000487127494868EC
:104B70002749FBF755FB0446FBF753FC00B20090B6
:104B80009DF801001F4988719DF80000C8711F49F8
:104B900008681F49FBF744FB0446FBF742FC00B2E0
:104BA00000909DF80100174908729DF800004872B6
:104BB0001849C8691649FBF733FB0446FBF731FC7B
:104BC00000B200909DF801000E4988729DF8000027
:104BD000C872114988680E49FBF722FB0446FBF7AF
:104BE00020FC00B200909DF80100064908739DF872
:104BF000000048730846FFF75FFD38BD89020020BA
:104C0000200200202A03002064020020F80A00206D
:104C10000000C842DC0200203402002010B500F081
:104C200001F810BD0CB500200190009033480068D9
:104C300040F480303149086000BF3048006800F41B
:104C4000003000900198401C0190009818B901981C
:104C5000B0F5A06FF1D12948006800F4003010B120
:104C60000120009001E0002000900098012843D12D
:104C70002348006840F01000214908600846006899
:104C800020F0070008600846006840F00200086055
:104C90001A48406819494860084640684860084614
:104CA000406840F4806048600846406820F47C100A
:104CB00048600846406840F4E810486008460068CC
:104CC00040F08070086000BF0C48006800F0007081
:104CD0000028F9D00948406820F0030007494860DF
:104CE0000846406840F00200486000BF0348406842
:104CF00000F00C000828F9D10CBD000000100240A3
:104D0000002002402DE9F05F06460F4614464FF0A2
:104D10000008C146C246B6F90000FBF763FB3B49F9
:104D20003B4A127841F82200B6F90200FBF75AFB21
:104D30003849374A127841F82200B6F90400FBF7E7
:104D400051FB3549324A127841F822003048007848
:104D5000401C2F49087008460078A04204DA2F480A
:104D6000007808B1BDE8F09F00202C490870621E51
:104D700000212648FFF78CF9621E00212548FFF725
:104D800087F9621E00212448FFF782F9012516E009
:104D90001E4850F825104046FBF7EAF980461D48AA
:104DA00050F825104846FBF7E3F981461A4850F8B9
:104DB00025105046FBF7DCF98246681CC5B2601E20
:104DC000A842E5DC12480078A04202DB002010492E
:104DD0000870A01EFBF706FB834659464046FBF7CA
:104DE00051FA3860A01EFBF7FDFA83465946484643
:104DF000FBF748FA7860A01EFBF7F4FA83465946A1
:104E00005046FBF73FFAB86000BFABE798060020BA
:104E1000A2020020E806002038070020A30200209C
:104E2000042808D14FF0E021096941F004014FF056
:104E3000E022116107E04FF0E021096921F004014F
:104E40004FF0E0221161704710B51348006840F040
:104E500001001149086008464068104908400E49A1
:104E60004860084600680E4908400B49086008463B
:104E7000006820F4802008600846406820F4FE00A6
:104E800048604FF41F008860FFF7C8FE4FF00060D5
:104E90000449086010BD0000001002400000FFF847
:104EA000FFFFF6FE08ED00E010B5FEF7ABFDFEF7E4
:104EB00047FAFDF7C5FA4FF4E12000F04FFDFDF78A
:104EC000C3FD00F0E5F8FDF7C9FBFFF749FBFEF76E
:104ED000AFFBFEF7E7FAFCF791FFFEF733FEFEF7B4
:104EE000BBFFFFF7A9F902A000F076FE10BD00009D
:104EF00053797374656D20496E69742046696E69D3
:104F000073680A0010B50121324800F0A7F80028A4
:104F10005AD031480088401C2F4908802F4800880B
:104F2000401C2E4908802E480088401C2C490880CF
:104F30002C480088401C2B4908802B480088401CC6
:104F40002949088029480088401C284908802248AF
:104F50000088022805DB00201F4908800120244921
:104F600008701E480088052805DB00201B490880C2
:104F70000120204908701A4800880A2805DB002013
:104F80001749088001201C490870164800886428C9
:104F900005DB0020134908800120184908701248D9
:104FA0000088C82805DB00200F490880012014492B
:104FB00008700E480088B0F5C87F05DB00200B495B
:104FC000088001200F4908700121024800F028F8EC
:104FD00010BD00000008004006000020080000206E
:104FE0000A0000200C0000200E000020100000200D
:104FF0000500002002000020010000200000002029
:10500000030000200400002021B1028842F0800249
:10501000028004E002884FF67F731A4002807047D6
:10502000CA430282704721B1028842F00102028025
:1050300004E002884FF6FE731A400280704731B1D7
:10504000B0F8442042F40042A0F8442005E0B0F853
:105050004420C2F30E02A0F84420704730B5024647
:10506000002000230024158A05EA0103958905EA3A
:10507000010413B10CB1012000E0002030BD1AB1D1
:1050800083890B43838102E083898B43838170474B
:105090000EB501210420FFF723F840F2CF20ADF830
:1050A00004006320ADF800000020ADF80600ADF864
:1050B00002006946064800F06BF9012211460548D6
:1050C000FFF7DDFF01210348FFF7ADFF0EBD000034
:1050D000002C01400008004070B50024002200238D
:1050E000058C4FF6FE7635400584028C8388048B50
:1050F0004FF68F752C40B51E2C400D882C43751E25
:105100002A400D892A434D882A43144DA8420BD0CA
:10511000134DA84208D0134DA84205D0124DA84205
:1051200002D0124DA84213D14FF6F7752A404D898F
:105130002A434FF6FB752A408D882A434FF6FF65B8
:105140002B404FF6FF552B408D892B43CD892B43A8
:1051500083800483CD888586028470BD002C014045
:10516000003401400040014000440140004801403B
:105170000A460021018B4FF6F77319401143018352
:105180007047000070B5002400220023058C4FF604
:10519000EF7635400584028C8388048B48F6FF75D2
:1051A0002C404FF6FF452C400D884FF6FF7606EA5F
:1051B00005252C434FF6DF752A400D8906EA0515B3
:1051C0002A434D8806EA05152A43154DA84202D008
:1051D000144DA8421DD14FF67F752A404D894FF6D8
:1051E000FF7606EA05152A434FF6BF752A408D88DB
:1051F00006EA05152A434FF6FF352B404FF2FF759F
:105200002B408D8906EA85052B43CD8906EA850565
:105210002B4383800483CD880587028470BD000002
:10522000002C0140003401400A460021018B4FF25E
:10523000FF7319404FF6FF7303EA022319430183FA
:105240007047000070B5002400220023058C4FF643
:10525000FF6635400584028C8388848B4FF68F75FA
:105260002C404FF6FC752C400D882C434FF6FF5513
:105270002A400D894FF6FF7606EA05252A434D8818
:1052800006EA05252A43154DA84202D0144DA8422E
:105290001DD14FF2FF752A404D894FF6FF7606EA81
:1052A00005252A434FF6FF352A408D8806EA052555
:1052B0002A434EF6FF752B404DF6FF752B408D8926
:1052C00006EA05152B43CD8906EA05152B43838095
:1052D0008483CD888587028470BD0000002C014046
:1052E000003401400A460021818B4FF6F7731940C4
:1052F000114381837047000070B500220023002411
:10530000058C4EF6FF7635400584038C8488828BAD
:1053100048F6FF752A404FF6FF452A400D884FF6A4
:10532000FF7606EA05252A434DF6FF752B400D89C9
:1053300006EA05352B434D8806EA05352B430B4D10
:10534000A84202D00A4DA84208D14BF6FF752C4066
:105350008D894FF6FF7606EA85152C43848082837B
:10536000CD88A0F84050038470BD0000002C01409F
:10537000003401400A460021818B4FF2FF7319402F
:105380004FF6FF7303EA022319438183704700003D
:10539000002202881D4B98420ED01D4B98420BD024
:1053A000B0F1804F08D01B4B984205D01A4B984261
:1053B00002D01A4B984204D14FF68F731A404B8893
:1053C0001A43174B984207D0164B984204D04FF619
:1053D000FF431A40CB881A4302808B8883850B8851
:1053E00003850A4B98420BD0094B984208D00E4BCC
:1053F000984205D00D4B984202D00D4B984201D1F6
:105400000B7A03860123838270470000002C014041
:10541000003401400004004000080040000C00403F
:1054200000100040001400400040014000440140D2
:105430000048014010B58848008800B287490880BC
:105440008548408800B248808348808800B28880C0
:105450008148C08800B2824908807F48008900B234
:1054600048807D48408900B288807B498889FAF766
:10547000C2FF04467B49FAF705FF7B49086076497D
:10548000C889FAF7B8FF04467649FAF7FBFE764971
:1054900048607149088AFAF7AEFF04467149FAF785
:1054A000F1FE714988606C49488AFAF7A4FF044606
:1054B0006C49FAF7E7FE6D4908606749888AFAF790
:1054C0009AFF04466749FAF7DDFE68494860624979
:1054D000C88AFAF790FF04466249FAF7D3FE634997
:1054E00088605D49088BFAF786FF04465D49FAF744
:1054F000C9FE5F4908605849488BFAF77CFF0446AB
:105500005849FAF7BFFE5A4948605349888BFAF761
:1055100072FF04465349FAF7B5FE554988604E4973
:10552000C88BFAF768FF04464E49FAF7ABFE5149BB
:1055300008604949088CFAF75EFF04464949FAF7C2
:10554000A1FE4C4948604449488CFAF754FF044690
:105550004449FAF797FE474988603F49888CFAF733
:105560004AFF04463F49FAF78DFE434908603A492D
:10557000C88CFAF740FF04463A49FAF783FE3E49E1
:1055800048603549088DFAF736FF04463549FAF781
:1055900079FE394988603049488DFAF72CFF044676
:1055A0003049FAF76FFE354908602B49888DFAF7C4
:1055B00022FF04462B49FAF765FE30494860264928
:1055C000C88DFAF718FF04462649FAF75BFE2B4907
:1055D00088602149088EFAF70EFF04462149FAF740
:1055E00051FE274908601C49488EFAF704FF04461B
:1055F0001C49FAF747FE224948601749888EFAF796
:10560000FAFE04461749FAF73DFE1D498860124923
:10561000C88EFAF7F0FE04461249FAF733FE19492C
:1056200008600D49088FFAF7E6FE04460D49FAF7BF
:1056300029FE144948600849488FFAF7DCFE044601
:105640000849FAF71FFE0F498860034890F83C00AC
:105650000D49087010BD0000B80500200E020020A2
:105660000802002000007A44D8030020140400201F
:10567000500400208C040020C804002004050020F1
:10568000400500207C0500204B02002010B5214879
:10569000007820B100201F490870FBF7D5FA1E489A
:1056A000007880B100201C490870FEF72DFC1B4AD1
:1056B0001B491C48FDF736FB1B4803781B4A194958
:1056C0001648FCF715FC1A48007870B100201849FC
:1056D0000870FDF77DFE1448007820B91548007861
:1056E00008B1FEF7C3FDFCF749FB1348007830B161
:1056F000002011490870FEF7B5FFFFF705FA0F48C3
:10570000007830B100200D490870FEF7FBFEFDF770
:1057100079FE10BD0500002001000020F80A0020DD
:105720001C0B0020040B00208902002064020020D2
:1057300000000020000200200300002004000020E0
:1057400070B500BF40F225510F4800F047F838B15E
:105750000D48001D0088C4B22046FBF7E5FE0CE0B2
:1057600040F22441084800F039F830B1064800887A
:10577000C5B20548001D0088C5B240F22551024857
:1057800000F004F870BD00000044004010B5002295
:10579000002340F66A14A14200D100BF0A1201247E
:1057A0009440A3B2DC43048010BD21B1828942F44D
:1057B0000052828104E082894DF6FF731A40828193
:1057C000704702460020B1F5007F00D100BF13886A
:1057D0000B400BB1012000E00020704770B502467D
:1057E000002400230025002040F66A16B14200D1B3
:1057F00000BFC1F3421501F01F03012606FA03F3AF
:10580000012D02D19689334006E0022D02D1168A7D
:10581000334001E0968A33400C12012606FA04F464
:105820001688344013B10CB1012000E0002070BD97
:10583000F0B50346002400260025002040F66A1734
:10584000B94200D100BF1846C1F3421401F01F064F
:10585000012707FA06F5012C01D10C3004E0022CD7
:1058600001D1103000E014301AB107682F430760EF
:1058700002E00768AF430760F0BD00002DE9F04784
:1058800086B005460E460024A24600BFA14600276A
:10589000B08900B100BF2F462C8A4CF6FF7004403F
:1058A000F08804432C82AC894EF6F3100440B08893
:1058B00031890843718908430443AC81AC8A4FF6AF
:1058C000FF400440B0890443AC8201A8FEF728FCE5
:1058D0001F48874202D1DDF810A001E0DDF80CA0DE
:1058E000A88900F4004040B10AEBCA0000EB0A109E
:1058F00031684900B0FBF1F807E00AEBCA0000EBA1
:105900000A1031688900B0FBF1F86420B8FBF0F0B0
:1059100004012009642101FB1089A88900F40040DA
:1059200040B1322000EBC900B0FBF1F000F00700FD
:10593000044308E0322000EB09106421B0FBF1F0D1
:1059400000F00F0004432C8106B0BDE8F087000092
:1059500000380140C1F308028280704710B586B05C
:10596000044601210520FEF7CBFB01214804FEF788
:10597000B7FB0420ADF8140018208DF817000320A1
:105980008DF8160005A91948FCF77CFF0820ADF832
:10599000140004208DF8170003208DF8160005A9C7
:1059A0001248FCF76FFF0C20ADF80E000020ADF898
:1059B0000C000194ADF80A00ADF80800ADF8100035
:1059C00001A90B48FFF75AFF012240F22551084870
:1059D000FFF72EFF012240F224410548FFF728FF80
:1059E00001210348FFF7E1FE06B010BD00080140A9
:1059F0000044004006488088801F00B20449888027
:105A00000846B0F90400962801DC9620888070478B
:105A1000640200202348006840F4007021490860B7
:105A200000BF00BF00BF00BF00BF00BF00BF1D48D8
:105A3000001D006840F400701A49091D086000BF8D
:105A400000BF00BF00BF00BF00BF00BF00BF00BF5E
:105A500000BF00BF00BF00BF00BF00BF00BF00BF4E
:105A600000BF00BF00BF00BF00BF00BF00BF00BF3E
:105A700000BF00BF00BF00BF00BF00BF00BF00BF2E
:105A800000BF00BF00BF00BF00BF00BF00BF00BF1E
:105A900000BF00BF00BF00BF00BF00BF00BF00BF0E
:105AA00000BF7047100C01402348006840F40070AC
:105AB0002149086000BF00BF00BF00BF00BF00BF9A
:105AC00000BF00BF00BF00BF00BF00BF00BF00BFDE
:105AD00000BF00BF00BF00BF00BF00BF00BF00BFCE
